:100000000C9423060C946A060C946A060C946A06F7
:100010000C946A060C946A060C946A060C946A06A0
:100020000C946A060C946A060C945F0E0C94310FC3
:100030000C94271E0C946A060C946A060C946A06AB
:100040000C946A060C946A060C946A060C946A0670
:100050000C946A060C949B1E0C946A060C946A0617
:100060000C946A060C94DD080C946A060C946A06DB
:100070000C946A060C946A060C946A060C946A0640
:100080000C946A060C946A060C946A060C946A0630
:100090000C946A060C946A060C946A060C946A0620
:1000A0000C946A060C946A060C946A069E0FC00FA4
:1000B000AE10C00FAE1005102810AE107D109010BD
:1000C0005614561484148414E1141F153817381765
:1000D00038153817391639160C17381738172317EB
:1000E000F1A1F1A22BA3283200F001F035021E028B
:1000F0001F022002210222022302240225022602DC
:1001000027022D022E022F023002310229141A0872
:1001100015171C180C12132AC2041607090A0B0D16
:100120000E0F3334E11D1B0619051110363738C385
:10013000E0E2E365C12C2CC05051524F351E1F2008
:10014000212223242526274C010101010101012D33
:100150002E2F303101444568696A6B6C6D6E6F01FA
:1001600001010139010101014A4E4B4DC6C7C8C901
:10017000CACBCCCDCECFD04C01010101010101D1C0
:10018000D2D3D4D5013A3B3C3D3E3F4041424301AE
:1001900001010139010101014A4E4B4D29B4B7B3A8
:1001A000B501010101014601010101010101010146
:1001B0000101010101C4C5010101010101010101A8
:1001C0000101010101010101F2F1F0F30A00253002
:1001D000313662003A200025303258000A722F630F
:1001E0002030313233343536373839414243444593
:1001F000460A000A002530325800626F756E63654A
:10020000213A20004B6579626F61726420737461DA
:1002100072742E0A0055534220636F6E66696775CB
:100220007265642E0A000D0A696E69740A005B44E7
:100230005D005B435D0026035400680065002000FC
:1002400047004E0041005000210020004B00650097
:10025000790062006F0061007200640000000C030E
:1002600064006900300069006200000004030904B2
:1002700009028D00050100A03209040000010301FC
:100280000100092111010001224000070581030836
:10029000000A090401000103010200092111010003
:1002A00001224D000705820308000A09040200012B
:1002B0000300000009211101000122360007058317
:1002C0000308000A090403000203000000092111C9
:1002D0000100012222000705840320000107050414
:1002E000032000010904040001030000000921119A
:1002F00001000122390007058503200001120110C9
:100300000100000008EDFE0C0A09000102000105D1
:10031000010906A101050719E029E7150025019546
:1003200008750181020508190129059505750191D6
:10033000029501750391010507190029F71500259C
:100340000195F875018102C00631FF0974A1010908
:1003500075150026FF0095207508810209761500A5
:1003600026FF00952075089102C005010980A101B2
:10037000850216810026B7001A81002AB700751081
:1003800095018100C0050C0901A10185031601003A
:10039000269C021A01002A9C02751095018100C05A
:1003A00005010902A1010901A10005091901290599
:1003B00015002501950575018102950175038101DF
:1003C0000501093009311581257F950275088106DF
:1003D00009381581257F950175088106050C0A38B5
:1003E000021581257F950175088106C0C0050109A8
:1003F00006A101050719E029E715002501950875F3
:1004000001810295017508810105081901290595E9
:1004100005750191029501750391010507190029E0
:10042000FF150026FF00950675088100C0636F6EFA
:1004300073756D65723A20253034580A00737973EC
:1004400074656D3A20253034580A000A0025303290
:100450005820006B6579626F6172643A20004C45E8
:10046000443A20253032580A0064656C5F6B657928
:100470005F6269743A2063616E27742064656C3A28
:1004800020253032580A006164645F6B65795F62D1
:1004900069743A2063616E2774206164643A202590
:1004A0003032580A00646F6E652E0A00626F6F74F6
:1004B0006D61676963207363616E3A202E2E2E2072
:1004C00000290A002575002F002575005D280025EC
:1004D00064002000256400200025640020002564BD
:1004E000007C0025303258006D6F7573656B65793F
:1004F000205B62746E7C782079207620685D28729B
:1005000065702F61636C293A205B006D6B5F7768C3
:1005100065656C5F74696D655F746F5F6D61782090
:100520003D2025640A006D6B5F776865656C5F6DC3
:1005300061785F7370656564203D2025640A006DF5
:100540006B5F74696D655F746F5F6D6178203D20CE
:1005500025640A006D6B5F6D61785F73706565641B
:10056000203D2025640A006D6B5F696E74657276AC
:10057000616C203D2025640A006D6B5F64656C61D1
:1005800079203D2025640A006D6B5F776865656C96
:100590005F74696D655F746F5F6D6178203D2025C4
:1005A000640A006D6B5F776865656C5F6D61785F8D
:1005B0007370656564203D2025640A006D6B5F746F
:1005C000696D655F746F5F6D6178203D2025640AF9
:1005D000006D6B5F6D61785F7370656564203D20B1
:1005E00025640A006D6B5F696E74657276616C20BC
:1005F0003D2025640A006D6B5F64656C6179203D68
:100600002025640A000A00257500363A20776865BF
:10061000656C5F74696D655F746F5F6D61783A20BA
:10062000000A00257500353A20776865656C5F6DB6
:1006300061785F73706565643A20000A0025750073
:10064000343A2074696D655F746F5F6D61783A202C
:10065000000A00257500333A206D61785F7370657C
:1006600065643A20000A00257500323A20696E74EC
:10067000657276616C286D73293A20000A00257531
:1006800000313A2064656C6179282A31306D732914
:100690003A20000A092D2056616C756573202D0AD9
:1006A000004D3E004D25643E20003F0073657420E0
:1006B00064656661756C740A00433E200077686566
:1006C00072652064656C74613A20637572736F7231
:1006D0003D25642C20776865656C3D25640A53656B
:1006E0006520687474703A2F2F656E2E77696B6978
:1006F00070656469612E6F72672F77696B692F4D22
:100700006F7573655F6B6579730A000A092D204D5B
:100710006F7573656B6579202D0A4553432F713AC8
:1007200009717569740A313A0964656C6179282A1E
:1007300031306D73290A323A09696E7465727661D7
:100740006C286D73290A333A096D61785F7370659F
:1007500065640A343A0974696D655F746F5F6D6131
:10076000780A353A09776865656C5F6D61785F7303
:10077000706565640A363A09776865656C5F746907
:100780006D655F746F5F6D61780A0A703A09707207
:10079000696E742076616C7565730A643A097365D5
:1007A000742064656661756C74730A75703A092B00
:1007B000310A646F776E3A092D310A706775703AA5
:1007C000092B31300A7067646F776E3A092D31302A
:1007D0000A0A7370656564203D2064656C7461204D
:1007E0002A206D61785F7370656564202A20287205
:1007F0006570656174202F2074696D655F746F5F2B
:100800006D6178290A003F004D3E2000433E2000E4
:100810004C25640A000A092D20436F6E736F6C65C6
:10082000202D0A4553432F713A09717569740A6D79
:100830003A096D6F7573656B65790A000A092D2099
:100840004D61676963202D0A643A096465627567C2
:100850000A783A096465627567206D617472697817
:100860000A6B3A096465627567206B6579626F612E
:1008700072640A6D3A096465627567206D6F7573FD
:10088000650A763A0976657273696F6E0A733A097A
:100890007374617475730A633A09636F6E736F6C76
:1008A00065206D6F64650A302D343A096C61796595
:1008B00072302D34284631302D4634290A50617566
:1008C000733A09626F6F746C6F616465720A653A9E
:1008D00009656570726F6D0A6E3A094E4B524F0A88
:1008E000000A002575002E6E6B726F3A20000A0018
:1008F0002575002E737761705F6261636B736C6145
:1009000073685F6261636B73706163653A20000AAC
:10091000002575002E737761705F67726176655F81
:100920006573633A20000A002575002E6E6F5F67BD
:1009300075693A20000A002575002E737761705F93
:1009400072616C745F726775693A20000A002575E0
:10095000002E737761705F6C616C745F6C67756992
:100960003A20000A002575002E636170736C6F6376
:100970006B5F746F5F636F6E74726F6C3A20000A06
:10098000002575002E737761705F636F6E74726FF0
:100990006C5F636170736C6F636B3A20000A0025B3
:1009A000303258006B65796D61705F636F6E666998
:1009B000672E7261773A20000A002575002E6D6F50
:1009C0007573653A20000A002575002E6B65796203
:1009D0006F6172643A20000A002575002E6D617403
:1009E0007269783A20000A002575002E656E6162F2
:1009F0006C653A20000A0025303258006465627543
:100A0000675F636F6E6669672E7261773A20000ACE
:100A10000025750064656661756C745F6C6179654D
:100A2000723A20003F004E4B524F3A206F66660AE2
:100A3000004E4B524F3A206F6E0A0074696D65721A
:100A40005F72656164333228293A202530346C584E
:100A50000A006B6579626F6172645F6E6B726F3AE8
:100A60002025580A006B6579626F6172645F696462
:100A70006C653A2025580A006B6579626F61726473
:100A80005F70726F746F636F6C3A2025580A00684C
:100A90006F73745F6B6579626F6172645F6C6564BC
:100AA0007328293A2025580A000A092D2053746119
:100AB000747573202D0A004743433A20342E392E93
:100AC00032204156522D4C4942433A20312E382E85
:100AD0003073766E204156525F415243483A20614E
:100AE0007672350A004F5054494F4E533A204C55B8
:100AF000464120424F4F544D41474943204D4F55A9
:100B000053454B45592045585452414B4559204374
:100B10004F4E534F4C4520434F4D4D414E44204E78
:100B20004B524F20343039360A004255494C443A32
:100B30002035663263343230202832313A34333A49
:100B40003333204A616E2033302032303138290A65
:100B5000005649443A203078464545442864693077
:100B6000696229205049443A203078304130432886
:100B700054686520474E415021204B6579626F6172
:100B8000726429205645523A203078303030390A84
:100B900000444553433A204120636F6D7061637494
:100BA000206B6579626F6172640A000A092D205614
:100BB000657273696F6E202D0A000A6D6F7573651B
:100BC0003A206F66660A000A6D6F7573653A206F8A
:100BD0006E0A000A6B6579626F6172643A206F6613
:100BE000660A000A6B6579626F6172643A206F6E03
:100BF0000A000A6D61747269783A206F66660A00AD
:100C00000A6D61747269783A206F6E0A000A646531
:100C10006275673A206F6E0A000A64656275673A0A
:100C2000206F66660A000A0A626F6F746C6F6164F7
:100C300065722E2E2E2000433E20006565636F6E88
:100C40006669673A0A0011241FBECFEFDAE0DEBF03
:100C5000CDBF04B603FE27C0809103039091040327
:100C6000A0910503B09106038730904BA740B04B8D
:100C7000D1F4109203031092040310920503109212
:100C8000060314BE84B7877F84BF0FB6F894A89577
:100C900080916000886180936000109260000FBEB8
:100CA000E0E0F8E3099511E0A0E0B1E0E6EBF6E55D
:100CB00002C005900D92A833B107D9F723E0A8E34D
:100CC000B1E001C01D92A330B207E1F70E948D0B85
:100CD0000C94592B0C940000FF93EF93E091380192
:100CE000F0913901309709F00995EF91FF9108953E
:100CF000FC018591803011F0EFDFFBCF0895FF27D5
:100D0000E0E230E247FF0CC0419597FF09C0EDE2F9
:100D10006095709580959095611D711D811D911D47
:100D200027FF02C0219530E350E2AA27660F771F04
:100D3000881F991FAA1FA41710F0A41B63955A952A
:100D4000A9F7AA3008F0A95FA05DAF93F3956115EC
:100D500071058105910541F7ED3211F4EF93F3959B
:100D6000F21718F43F93F395FBCF8F91B5DFFA9507
:100D7000E1F70895E991F9918591803021F085326C
:100D800019F0AADFF9CF089520E0E8945591553283
:100D9000C1F3503311F4689455915A3348F45053C9
:100DA00090F3220F022E220F220F200D250FF4CFD9
:100DB0000EF4219589919991533619F3533729F1FE
:100DC000533559F1BC0188279927E8945C3621F402
:100DD0008991999168945591543639F446EF7EF093
:100DE00077FF0DC08FEF9FEF0AC055374AE039F00B
:100DF000583540E121F0523642E009F00895FF9362
:100E0000EF937DDFEF91FF91B7CFFF93EF93FC015D
:100E100081918030B9F360DFFBCFFF93EF9368DF00
:100E2000F1CFDF93CF93CDB7DEB72596A3DFCF9178
:100E3000DF91089585E60C94D60884E60C94D608D4
:100E4000662319F0613039F00895FC01828188230E
:100E500039F00C941D07FC01828181110C941A0752
:100E600008958AB18C7E8AB98BB18C7E8BB93E98FD
:100E7000469808950E94310780B38F7080BB81B37C
:100E8000806F81BB6E98769A57985F9A84B181780B
:100E900084B985B18E6785B9A2E4B1E011961C9240
:100EA0001E92EAE3F1E01182108213961C921E92C8
:100EB00012971382128215961C921E921497158215
:100EC000148217961C921E921697178216820C9403
:100ED000C908EF92FF920F931F93CF93DF93CAE35A
:100EE000D1E0F12C45E0E42E05EF11E082E0F816A8
:100EF00061F093E0F91661F081E0F81619F0519A6B
:100F0000599808C0509A589805C0549A5C9802C0E5
:100F10003E9A469890EA9A95F1F729B1022E000C74
:100F2000330B20953095832F881F8827881F90E0EA
:100F3000669903C022E030E002C020E030E0822B5E
:100F4000932B1C9903C064E070E002C060E070E085
:100F5000862B972B1D9903C068E070E002C060E00B
:100F600070E0862B972B1E9903C020E130E002C071
:100F700020E030E0822B932B1A9903C0E0E2F0E0EE
:100F800002C0E0E0F0E08E2B9F2B1B9903C060E4D1
:100F900070E002C060E070E0862B972B199903C0C7
:100FA00020E830E002C020E030E0AC01422B532BBF
:100FB0002FB1022E000C330B20953095C9018827E4
:100FC000990F881F9927982F8827842B952B7E9916
:100FD00003C020E032E002C020E030E0822B932BFF
:100FE0007D9903C020E034E002C020E030E0822B95
:100FF000932B7C9903C020E038E002C020E030E071
:10100000822B932B288139812817390741F1998345
:10101000888380910001882301F18091E40280FFA0
:1010200004C08AEF91E00E9478068091E40280FF7C
:101030000CC0809100011F928F931F930F930E9409
:1010400011070F900F900F900F908091E40280FF96
:1010500004C083EF91E00E947806E09200010E94B4
:101060003107F394229684E0F81240CF809100017A
:10107000882361F1815080930001882339F08FE942
:101080009FE00197F1F700C0000020C080913A0175
:1010900090913B01909343018093420180913C01E8
:1010A00090913D01909345018093440180913E01D0
:1010B00090913F01909347018093460180914001B8
:1010C00090914101909349018093480181E0DF9123
:1010D000CF911F910F91FF90EF900895E82FF0E0CE
:1010E000EE0FFF1FEE5BFE4F808191810895CF923E
:1010F000DF92EF92FF920F931F93CF93DF938CEDCC
:1011000091E00E94780682E4E82E81E0F82EC0E0AB
:10111000D0E097EDC92E91E0D92E0EEC11E0DF93CF
:10112000CF93DF92CF920E94110784ED91E00E944D
:101130007806F701819191917F010E94B61D9F93DE
:101140008F931F930F930E9411078CEC91E00E94E4
:10115000780621968DB79EB708960FB6F8949EBF75
:101160000FBE8DBFC430D105D1F6DF91CF911F9155
:101170000F91FF90EF90DF90CF90089581FF04C012
:10118000209A2898559A03C02098289855985D98D9
:10119000089587E68093CC001092CD0088E080937C
:1011A000C90086E08093CA00789408959091C800A1
:1011B00095FFFCCF8093CE0008951F920F920FB63B
:1011C0000F9211242F933F934F938F939F93EF93FD
:1011D000FF9380914B0190E09C012F5F3F4F409126
:1011E0004A01421741F03091CE00FC01E45BFE4F12
:1011F000308320934B01FF91EF919F918F914F91FD
:101200003F912F910F900FBE0F901F9018958091D6
:10121000700208959FB7F89410924F029FBF90916B
:10122000F902943009F057C09091E9009F70309115
:10123000EC00232F217030FD20E8922B24E0209336
:10124000E9002091EB0020FF43C02091EE0027FF32
:101250003FC020914C02222321F02091E80025FF7D
:1012600037C010924C0226E03091E80035FD15C0E1
:101270003091F902343061F53091EB0035FD28C032
:10128000215021F481E080934C0222C0EFE9FFE07D
:101290003197F1F700C00000E7CF8093F100809113
:1012A000E80085FD0AC08091E80080FFFCCF8091B6
:1012B000E8008E778093E80006C08FB7F89421E0AD
:1012C00020934F028FBF9F709093E90080E00895B4
:1012D0009F709093E9008FEF0895CF93DF9300D034
:1012E0001F92CDB7DEB79C018091F902843019F5C9
:1012F00093E099833B832A839093E9008FEF909149
:10130000E800815095FD06C095ED9A95F1F7000033
:101310008111F5CF8091E80085FF0DC040E050E0DD
:1013200063E070E0CE0101960E944F0C8091E800CE
:101330008E778093E8000F900F900F90DF91CF9100
:101340000895CF93DF9300D01F92CDB7DEB72091E1
:10135000F902243021F522E029839B838A8383E0EC
:101360008093E9008FEF9091E800815095FD06C0D1
:1013700095ED9A95F1F700008111F5CF8091E80085
:1013800085FF0DC040E050E063E070E0CE010196C3
:101390000E944F0C8091E8008E778093E8000F90B8
:1013A0000F900F90DF91CF9108952091F902243092
:1013B000F1F422E02093E9002FEF3091E800215072
:1013C00035FD06C035ED3A95F1F700002111F5CF56
:1013D0002091E80025FF0BC040E050E065E070E0A0
:1013E0000E944F0C8091E8008E778093E80008956A
:1013F000CF93DF932091F902243009F048C0EC012B
:1014000080910B018823E1F080910C018823C1F0C9
:1014100085E08093E9008FEF9091E800815095FD81
:1014200006C095E19A95F1F700008111F5CF809102
:10143000E80085FF2CC040E050E060E270E017C09B
:1014400081E08093E9008FEF9091E800815095FD55
:1014500006C095ED9A95F1F700008111F5CF8091C6
:10146000E80085FF14C040E050E068E070E0CE0185
:101470000E944F0C8091E8008E778093E80080E214
:10148000FE01A0E5B2E001900D928A95E1F7DF91AF
:10149000CF91089582E392E00E9478068091F8024D
:1014A000811109C00E94E40D0E94410E8091E2006A
:1014B00084608093E20008958EE292E00E947806B4
:1014C0001092F8020895089520914D022F5F822F07
:1014D00062E30E94EE2A992319F020934D020895A9
:1014E00010924D0280914F02882371F18091F90290
:1014F000843041F58091E9008F702091EC00922FAB
:10150000917020FD90E8892B94E09093E9009091F0
:10151000EB0090FF14C09091EE0097FF10C09091E7
:10152000E80095FF03C01092F100F9CF9091E80018
:1015300090FF05C09091E8009E779093E8008F702F
:101540008093E90010924F02089542E061EC81E03F
:101550000E945E0D42E061EC82E00E945E0D42E07E
:1015600061EC83E00E945E0D42E261EC84E00E9447
:101570005E0D42E261EC85E00C945E0D8091FB0211
:10158000833009F455C030F4813071F0823009F4B1
:101590008EC008958A3009F47AC08B3009F460C097
:1015A000893009F09CC020C08091FA02813A09F08C
:1015B00096C08091E800877F8093E8008091FE02CA
:1015C0009091FF02892B21F460E280E592E003C054
:1015D00060E080E090E070E00E949A0C8091E8006A
:1015E0008B778093E80008958091FA02813209F0A8
:1015F00076C08091FE029091FF02009719F0049747
:1016000009F06DC08091E800877F8093E8008091A9
:10161000E80082FD05C08091F9028111F8CF5FC01A
:101620008091F100809370028091E8008B7753C025
:101630008091FA02813A09F052C08091FE029091A5
:10164000FF02892B09F04BC08091E800877F8093CF
:10165000E8008091E80080FFFCCF80910B0136C04C
:101660008091FA028132D9F58091FE029091FF02B9
:10167000892BA9F58091E800877F8093E8000E947C
:10168000930D8091FC0280930B010C945A1780916A
:10169000FA02813221F58091E800877F8093E8008B
:1016A0000E94930D8091FD028093710208958091B4
:1016B000FA02813AA1F48091E800877F8093E800E4
:1016C0008091E80080FFFCCF809171028093F1004F
:1016D0008091E8008E778093E8000C94930D089534
:1016E000089508958091700280934E0210927002C6
:1016F00080E00E94BE080E946E120C945A170C944F
:10170000720B0E94E51D8091F702882329F00E9448
:101710000E1E81110C94390C089584B7877F84BF05
:101720000FB6F894A895809160008861809360005E
:10173000109260000FBE90E080E80FB6F89480939E
:101740006100909361000FBE8AE099E00E949B1DAA
:1017500086E292E00E9478060E94700B0E94871138
:101760000E94E40D0E94410E8091E200846080930B
:10177000E20078948091F9028430E1F785E192E00B
:101780000E9478060E94891181E091E00E94C610B3
:1017900084E092E00E9478060E94710B8091F90229
:1017A000853019F40E94810BF9CF0E948F11F6CF7A
:1017B0000E94231E80914E028093700208950C9423
:1017C000D80B292F332723303105C9F064F4213099
:1017D000310581F02230310509F043C08DE890E0F9
:1017E00020E732E042C021323105F1F022323105EA
:1017F00041F137C082E190E02DEF32E036C0992709
:101800008130910541F08230910541F0892B49F5F5
:10181000ECE6F2E005C0EEE5F2E002C0E6E3F2E05D
:10182000849190E09F0121C06530D8F4E62FF0E06C
:10183000EE0FFF1FEC5DFE4F2081318189E090E0CB
:1018400014C0653070F470E0FB01EE0FFF1FE65E20
:10185000FE4F20813181FB01EB5EFE4F808190E0E5
:1018600004C080E090E020E030E0FA013183208382
:10187000089580E189BD82E189BD09B400FEFDCFF4
:101880008091D8008F7D8093D8008091E0008260A5
:101890008093E0008091E00081FDFCCF0895CF921D
:1018A000DF92EF92FF920F931F93CF93DF93EC01A0
:1018B0008B016A010E94B20D811133C0C114D104A1
:1018C00039F0F60180819181081B190BC80FD91FCF
:1018D000E12CF12C0115110519F18091E80085FD2D
:1018E00016C08091E8008E778093E800C114D1047F
:1018F00049F0F60180819181E80EF91EF182E082C3
:1019000085E00FC00E94B20D882321F30AC089919F
:101910008093F10001501109FFEFEF1AFF0ADACFAF
:1019200080E0DF91CF911F910F91FF90EF90DF90BA
:10193000CF900895209100033091010326173707B7
:1019400048F06115710539F42091E8002E77209355
:10195000E80001C0B90140E061157105A9F12091CD
:10196000F902222309F443C0253009F442C0209132
:10197000E80023FD40C02091E80022FD32C0209104
:10198000E80020FFE9CF4091F3002091F20030E021
:10199000342BFC01CF016115710559F02830310558
:1019A00040F481918093F100615071092F5F3F4FA6
:1019B000F1CF41E02830310509F040E02091E80006
:1019C0002E772093E800C8CF4111C9CF0AC080917B
:1019D000F902882361F0853061F08091E80083FD91
:1019E0000AC08091E80082FFF2CF80E0089582E093
:1019F000089583E0089581E00895209100033091D7
:101A000001032617370748F06115710539F4209155
:101A1000E8002E772093E80001C0B901FC0120E026
:101A20006115710591F18091F902882309F440C094
:101A3000853009F43FC08091E80083FD3DC080916E
:101A4000E80082FD2FC08091E80080FFE9CF20915F
:101A5000F3008091F20090E0922B6115710559F02E
:101A60008830910540F424912093F1003196615023
:101A700071090196F2CF21E0089709F020E08091EA
:101A8000E8008E778093E800CBCF2111CCCF0AC03D
:101A90008091F902882361F0853061F08091E8003F
:101AA00083FD0AC08091E80082FFF2CF80E00895B4
:101AB00082E0089583E0089581E00895982F97309B
:101AC00058F59093E900981739F07091EC00209147
:101AD000ED005091F00003C0242F762F50E021FF3D
:101AE00019C03091EB003E7F3093EB003091ED0058
:101AF0003D7F3093ED003091EB0031603093EB008F
:101B00007093EC002093ED005093F0002091EE00D4
:101B100027FF07C09F5FD3CF8F708093E90081E0DC
:101B2000089580E008958091FA0287FF11C08091A6
:101B3000E80082FD05C08091F9028111F8CF11C043
:101B40008091E8008B770BC08091F902882349F0DF
:101B50008091E80080FFF8CF8091E8008E77809335
:101B6000E80008952091E4003091E50095E6409169
:101B7000EC00842F817040FF22C08091E80080FD3E
:101B80001CC08091F902882391F0853091F08091FA
:101B9000EB0085FD10C04091E4005091E500421734
:101BA000530729F39A01915011F784E0089582E0D8
:101BB000089583E0089581E0089580E008954091BC
:101BC000E80042FFDECF08950E94520E0E945A0E96
:101BD000E0EEF0E0808181608083E8EDF0E08081DC
:101BE0008F77808319BCA7EDB0E08C918E7F8C93AA
:101BF00080818F7E80831092F80208950F931F9347
:101C0000CF93DF930E94520E0E945A0EC8EDD0E08F
:101C100088818F77888388818068888388818F7D99
:101C2000888319BC1092F9021092F5021092F70203
:101C30001092F60200EE10E0F80180818B7F808325
:101C400088818160888342E060E080E00E945E0DD0
:101C5000E1EEF0E080818E7F8083E2EEF0E0808133
:101C600081608083808188608083F80180818E7F9D
:101C70008083888180618883DF91CF911F910F914C
:101C80000895E8EDF0E080818F7E8083E7EDF0E05D
:101C900080818160808384E082BF81E08093F8024C
:101CA0000C94FE0DE8EDF0E080818E7F8083109231
:101CB000E20008951092DA001092E10008951F9258
:101CC0000F920FB60F9211242F933F934F935F9370
:101CD0006F937F938F939F93AF93BF93EF93FF93F4
:101CE0008091E10082FF0BC08091E20082FF07C07B
:101CF0008091E1008B7F8093E1000E94640A8091D3
:101D0000DA0080FF1FC08091D80080FF1BC0809147
:101D1000DA008E7F8093DA008091D90080FF0DC0B9
:101D200080E189BD82E189BD09B400FEFDCF81E07B
:101D30008093F9020E944A0A05C019BC1092F90268
:101D40000E945C0A8091E10080FF19C08091E2004E
:101D500080FF15C08091E2008E7F8093E200809129
:101D6000E20080618093E2008091D80080628093DD
:101D7000D80019BC85E08093F9020E947F0B809106
:101D8000E10084FF30C08091E20084FF2CC080E13C
:101D900089BD82E189BD09B400FEFDCF8091D800E4
:101DA0008F7D8093D8008091E1008F7E8093E10049
:101DB0008091E2008F7E8093E2008091E20081605A
:101DC0008093E2008091F502882311F084E007C03F
:101DD0008091E30087FD02C081E001C083E0809331
:101DE000F9020E94DF0B8091E10083FF29C08091FE
:101DF000E20083FF25C08091E100877F8093E100AE
:101E000082E08093F9021092F5028091E1008E7FCA
:101E10008093E1008091E2008E7F8093E2008091C8
:101E2000E20080618093E20042E060E080E00E9496
:101E30005E0D8091F00088608093F0000E94630A3C
:101E4000FF91EF91BF91AF919F918F917F916F9192
:101E50005F914F913F912F910F900FBE0F901F9068
:101E600018951F920F920FB60F9211242F933F9344
:101E70004F935F936F937F938F939F93AF93BF9392
:101E8000CF93DF93EF93FF93C091E900CF708091E0
:101E9000EC00D82FD17080FDD0E81092E90080913D
:101EA000F000877F8093F00078940E94750F109265
:101EB000E9008091F00088608093F000CD2BCF7016
:101EC000C093E900FF91EF91DF91CF91BF91AF9166
:101ED0009F918F917F916F915F914F913F912F9142
:101EE0000F900FBE0F901F9018951F93CF93DF9305
:101EF000CDB7DEB7AA970FB6F894DEBF0FBECDBF41
:101F0000EAEFF2E088E08E0F9091F10091938E134A
:101F1000FBCF0E94BE0A8091E80083FF1FC1809121
:101F2000FA029091FB02492F50E04A30510508F027
:101F300015C1FA01EA5AFF4F0C940E2B803881F03C
:101F4000823809F00BC18091FE028F708093E90006
:101F50008091EB0085FB882780F91092E90006C08C
:101F60008091F6029091F702911182609091E800C1
:101F7000977F9093E8008093F1001092F100C8C021
:101F8000282F2D7F09F0EAC0882319F0823061F0F4
:101F9000E5C08091FC02813009F0E0C0933009F087
:101FA00080E08093F7022BC08091FC02811127C052
:101FB0008091FE028F7009F4D1C08093E9002091D6
:101FC000EB0020FF1CC0933021F48091EB00806275
:101FD00014C09091EB0090619093EB0021E030E011
:101FE000A90102C0440F551F8A95E2F74093EA0009
:101FF0001092EA008091EB0088608093EB001092D1
:10200000E9008091E800877F86C08111A7C0109108
:10201000FC021F778091E3008078812B8093E3009E
:102020008091E800877F8093E8000E94930D809163
:10203000E80080FFFCCF8091E30080688093E3009C
:10204000111102C082E001C083E08093F90286C0D2
:102050008058823008F082C08091FC029091FD028D
:102060008C3D53E0950779F583E08A838AE2898382
:102070004FB7F894DE01139620E03EE051E2E32FE3
:10208000F0E050935700E49120FF03C0E295EF7019
:102090003F5FEF708E2F90E0EA3010F0C79601C0DE
:1020A000C0968D939D932F5F243149F74FBF809148
:1020B000E800877F8093E8006AE270E0CE01019635
:1020C0000E949A0C14C0AE014F5F5F4F6091FE02F8
:1020D0000E94E10BBC01892B09F440C09091E800FB
:1020E000977F9093E80089819A810E94FD0C8091EE
:1020F000E8008B778093E80031C0803879F58091D3
:10210000E800877F8093E8008091F5028093F100DA
:102110008091E8008E778093E8000E94930D1EC0A6
:1021200081111CC09091FC029230C0F48091E800B3
:10213000877F8093E8009093F5020E94930D809131
:10214000F502811106C08091E30087FD02C081E0A5
:1021500001C084E08093F9020E94A50A8091E80002
:1021600083FF0AC08091E800877F8093E800809118
:10217000EB0080628093EB00AA960FB6F894DEBF66
:102180000FBECDBFDF91CF911F910895909377023D
:10219000809376020895E0917602F091770230976D
:1021A00021F00190F081E02D099480E00895EF92F4
:1021B000FF920F931F93CF93DF93E0917602F091FC
:1021C00077023097B1F18C010280F381E02D0995FF
:1021D0008091E40282FF2DC080FF04C083E594E07B
:1021E0000E947806E80110E28DE4E82E84E0F82EE3
:1021F0008091E40280FF0BC088811F928F93FF9231
:10220000EF920E9411070F900F900F900F901150B6
:1022100021961111EDCF8091E40280FF0AC08BE47A
:1022200094E0DF91CF911F910F91FF90EF900C946C
:102230007806DF91CF911F910F91FF90EF90089555
:10224000E0917602F0917702309721F00480F581D9
:10225000E02D09940895CF93DF93EC0180917402EF
:1022600090917502C817D90709F1D0937502C093F0
:102270007402E0917602F09177023097B9F006800F
:10228000F781E02DCE0109958091E40282FF0EC016
:1022900080FF0CC0DF93CF938DE394E09F938F93E7
:1022A0000E9411070F900F900F900F90DF91CF9128
:1022B0000895CF93DF93EC018091720290917302A5
:1022C000C817D90709F1D0937302C0937202E09145
:1022D0007602F09177023097B9F00084F185E02D15
:1022E000CE0109958091E40282FF0EC080FF0CC0F0
:1022F000DF93CF938DE294E09F938F930E94110719
:102300000F900F900F900F90DF91CF9108950C9444
:102310006F120E94501E0E943A070C945E204F924A
:102320005F926F927F928F929F92AF92BF92CF9265
:10233000DF92EF92FF920F931F93CF93DF9300D022
:1023400000D01F92CDB7DEB70E94690799E7C92E6A
:1023500092E0D92E00E010E0AA24A394B12C702EB4
:10236000802F0E946E084C01F601419051906F0140
:102370004826592641145104B1F40F5F1F4F043011
:10238000110569F78FEF89838A831B820E94591E8A
:102390008160782F9D838C8349815A816B818D81E7
:1023A0000E9472124AC08091E40281FD0E94770867
:1023B00020E030E0622E7501022E02C0EE0CFF1C00
:1023C0000A94E2F7C70184219521892B79F12983A9
:1023D0007A828E209F2091E0892809F490E09B83E7
:1023E0000E94591E8160782F9D838C8349815A8178
:1023F0006B818D810E94721249815A816B817C812F
:102400008D810E94D11D000F111FF801E758FD4F6B
:1024100080819181E826F926F182E082862DF0E123
:102420007F9E800D11240E94D60807C02F5F3F4F6A
:102430002C30310509F0BECFA0CF0E94D01D0E94E4
:10244000E823109178020E94CB10181779F10E94AE
:10245000CB10809378029091E40292FF0EC090FF1F
:102460000CC01F928F938EE594E09F938F930E94F0
:1024700011070F900F900F900F90809178020F909E
:102480000F900F900F900F90DF91CF911F910F91B0
:10249000FF90EF90DF90CF90BF90AF909F908F9084
:1024A0007F906F905F904F900C94E21D0F900F9073
:1024B0000F900F900F90DF91CF911F910F91FF9090
:1024C000EF90DF90CF90BF90AF909F908F907F90D4
:1024D0006F905F904F9008950C94BE0808950895F2
:1024E00008950895CF93DF93CDB7DEB72B970FB63E
:1024F000F894DEBF0FBECDBF942F4F83252F588792
:1025000069877A878B874A855B85452B21F02F3F2A
:1025100009F59F3FF9F4DE01119686E0FD01119265
:102520008A95E9F785E0FE01379601900D928A952C
:10253000E1F749815A816B817C818D819E810E9466
:10254000051A2B960FB6F894DEBF0FBECDBFDF91F4
:10255000CF9108954F81588569857A858B850E9432
:10256000D11DD9CFCF93882309F4E8C0C82F823872
:10257000A1F40E94CB1081FDE1C089E30E94901C70
:102580000E94751D2FEF81EE94E021508040904015
:10259000E1F700C0000089E315C08338C1F40E9450
:1025A000CB1080FDCBC083E50E94901C0E94751D5E
:1025B0002FEF81EE94E0215080409040E1F700C081
:1025C000000083E50E94E31CCF910C94751D8438B4
:1025D000A1F40E94CB1082FDB1C087E40E94901C40
:1025E0000E94751D2FEF81EE94E0215080409040B5
:1025F000E1F700C0000087E4E5CF8CEF8C0F813A53
:1026000048F48C2F0E946828811198C08C2F0E945A
:10261000901CDACF80E28C0F883048F4C77081E0DC
:1026200001C0880FCA95EAF70E943B1DCDCF8BE50C
:102630008C0F833078F4C53A29F0C63A31F083E83C
:1026400090E005C081E890E002C082E890E0CF9180
:102650000C942B1188E58C0F853108F06FC0C83AB7
:1026600061F1C93A69F1CA3A71F1CB3A79F1CC3AE0
:1026700081F1CD3A89F1CE3A91F1CF3A99F1C13B4E
:10268000A1F1C03BA9F1C23BB1F1C33BB9F1C43BDD
:10269000C1F1C53BC9F1C63BD1F1C73BD9F1C83B3C
:1026A000E1F1C93BE9F1CA3BF1F1CB3BF9F1CC3B9C
:1026B00009F43FC080E090E03EC082EE90E03BC075
:1026C00089EE90E038C08AEE90E035C085EB90E06E
:1026D00032C086EB90E02FC083EB90E02CC084EBFF
:1026E00090E029C087EB90E026C08CEC90E023C0FE
:1026F0008DEC90E020C083E891E01DC08AE891E075
:102700001AC082E991E017C084E991E014C081E227
:1027100092E011C083E292E00EC084E292E00BC02E
:1027200085E292E008C086E292E005C087E292E08E
:1027300002C08AE292E0CF910C945911CF91089592
:10274000882309F466C08238A1F40E94CB1081FF6F
:1027500060C089E30E94901C0E94751D2FEF81EEDE
:1027600094E0215080409040E1F700C0000089E3F0
:1027700015C08338B9F40E94CB1080FF4AC083E5AE
:102780000E94901C0E94751D2FEF81EE94E0215055
:1027900080409040E1F700C0000083E50E94E31C08
:1027A0000C94751D8438A1F40E94CB1082FF31C0B7
:1027B00087E40E94901C0E94751D2FEF81EE94E02B
:1027C000215080409040E1F700C0000087E4E6CF50
:1027D0009CEF980F913A10F390E2980F983050F4D4
:1027E000877091E001C0990F8A95EAF7892F0E94BE
:1027F000411DD6CF9BE5980F933020F480E090E008
:102800000C942B11885A853120F480E090E00C94D0
:1028100059110895882321F00E943B1D0C94751DC9
:102820000895882321F00E94411D0C94751D089580
:10283000BF92CF92DF92EF92FF920F931F93CF93AD
:10284000DF9300D000D000D0CDB7DEB725E0FC018B
:10285000DE01119601900D922A95E1F7FC0140816D
:102860003181F280258122952F7063817481672BDD
:1028700009F4FEC23F3F19F44F3F09F4F9C26C015D
:1028800049833A8389819A812E830E944F1C182F95
:10289000B92E0E944E1C0E945E1BEB2DE295EF703C
:1028A000F0E0E05AFF4F2E810C940E2B8B2D807F91
:1028B0009B2D9F70092F882311F00295007FFF2028
:1028C00049F0002309F481C2802F0E944E1D0E940E
:1028D000751D7BC2812F0E94A013002309F4C8C27A
:1028E000802F0E94541D26960FB6F894DEBF0FBEAF
:1028F000CDBFDF91CF911F910F91FF90EF90DF90AF
:10290000CF90BF900C94751D8B2D807F9B2D9F7059
:10291000092F803211F00295007F112319F0113038
:1029200009F12AC0FF20B1F0802F222351F121307C
:1029300041F526960FB6F894DEBF0FBECDBFDF91EE
:10294000CF911F910F91FF90EF90DF90CF90BF90AC
:102950000C945E1D222319F0213009F489C20E94D3
:10296000611D2DC0FF20F1F0263008F081C20E94C9
:10297000381D802329F023C0FF20F9F0211116C053
:10298000802F26960FB6F894DEBF0FBECDBFDF9125
:10299000CF911F910F91FF90EF90DF90CF90BF905C
:1029A0000C940A14253008F063C209C0F601858131
:1029B00080FF0BC28F708583E3CF21111BC2802F54
:1029C00082C12B2D26952695237030E021153105E7
:1029D00021F021303105D1F04BC2FF2021F0812FB1
:1029E0009B2D937002C080E090E026960FB6F8947D
:1029F000DEBF0FBECDBFDF91CF911F910F91FF9032
:102A0000EF90DF90CF90BF900C942B11FF2021F01E
:102A1000812F9B2D937002C080E090E026960FB628
:102A2000F894DEBF0FBECDBFDF91CF911F910F9104
:102A3000FF90EF90DF90CF90BF900C945911812FB1
:102A4000FF2019F00E946E2202C00E94D622269614
:102A50000FB6F894DEBF0FBECDBFDF91CF911F91AF
:102A60000F91FF90EF90DF90CF90BF900C945B237D
:102A70008B2D837009F07BC0F110FAC1812F8295F4
:102A800086958770880F880F912F9F70C92ED12C43
:102A9000E12CF12C082E04C0CC0CDD1CEE1CFF1C1C
:102AA0000A94D2F714FF12C04FE050E060E070E0EB
:102AB00004C0440F551F661F771F8A95D2F7CB01BC
:102AC000BA01609570958095909503C060E070E0C4
:102AD000CB012B2D269526952370422F50E04230B6
:102AE0005105D9F04330510569F16C297D298E29B2
:102AF0009F294130510551F126960FB6F894DEBF5B
:102B00000FBECDBFDF91CF911F910F91FF90EF903E
:102B1000DF90CF90BF900C94731B6C297D298E2978
:102B20009F2926960FB6F894DEBF0FBECDBFDF916A
:102B3000CF911F910F91FF90EF90DF90CF90BF90BA
:102B40000C94851B0E94731BC701B60126960FB615
:102B5000F894DEBF0FBECDBFDF91CF911F910F91D3
:102B6000FF90EF90DF90CF90BF900C94611BFF20FF
:102B700019F08B2D817001C08695882309F478C1E6
:102B8000812F829586958770880F880F912F9F706F
:102B9000C92ED12CE12CF12C082E04C0CC0CDD1C4C
:102BA000EE1CFF1C0A94D2F714FF12C04FE050E055
:102BB00060E070E004C0440F551F661F771F8A95C0
:102BC000D2F7CB01BA01609570958095909503C0BE
:102BD00060E070E0CB012B2D269526952370422FC7
:102BE00050E042305105D9F04330510569F16C296C
:102BF0007D298E299F294130510551F126960FB626
:102C0000F894DEBF0FBECDBFDF91CF911F910F9122
:102C1000FF90EF90DF90CF90BF900C942A1C6C290E
:102C20007D298E299F2926960FB6F894DEBF0FBE08
:102C3000CDBFDF91CF911F910F91FF90EF90DF906B
:102C4000CF90BF900C943C1C0E942A1CC701B60177
:102C500026960FB6F894DEBF0FBECDBFDF91CF91A1
:102C60001F910F91FF90EF90DF90CF90BF900C9449
:102C7000181C103FC9F128F480E4810F803250F015
:102C80009FC0123F09F461C008F44AC0133F09F421
:102C900071C096C0012F00718B2D8F71FF2051F0F4
:102CA0000E94B11B812F002319F08295807F69CE8D
:102CB0008F7067CE0E94D21B812F002319F082955E
:102CC000807F01C08F7026960FB6F894DEBF0FBECE
:102CD000CDBFDF91CF911F910F91FF90EF90DF90CB
:102CE000CF90BF900C941114FF20B1F0253008F064
:102CF000BFC08B2D8F7126960FB6F894DEBF0FBE26
:102D0000CDBFDF91CF911F910F91FF90EF90DF909A
:102D1000CF90BF900C94F71B263008F0A9C0E9CFE4
:102D2000FF20A9F08B2D8F7126960FB6F894DEBF89
:102D30000FBECDBFDF91CF911F910F91FF90EF900C
:102D4000DF90CF90BF900C94B11BFF2059F38B2DD7
:102D50008F7126960FB6F894DEBF0FBECDBFDF9100
:102D6000CF911F910F91FF90EF90DF90CF90BF9088
:102D70000C94D21BFF2099F08B2D8F7126960FB6E5
:102D8000F894DEBF0FBECDBFDF91CF911F910F91A1
:102D9000FF90EF90DF90CF90BF900C949C1B2696F5
:102DA0000FB6F894DEBF0FBECDBFDF91CF911F915C
:102DB0000F91FF90EF90DF90CF90BF900C94971BF6
:102DC000FF20A9F0222309F4ADCF812F26960FB65C
:102DD000F894DEBF0FBECDBFDF91CF911F910F9151
:102DE000FF90EF90DF90CF90BF900C94B21222230F
:102DF00009F4ADCF812F26960FB6F894DEBF0FBE33
:102E0000CDBFDF91CF911F910F91FF90EF90DF9099
:102E1000CF90BF900C94A0134B2D4F70612FC60123
:102E20000E94761F26960FB6F894DEBF0FBECDBF68
:102E3000DF91CF911F910F91FF90EF90DF90CF9096
:102E4000BF900C94A91A4B2D4F70612FC601269686
:102E50000FB6F894DEBF0FBECDBFDF91CF911F91AB
:102E60000F91FF90EF90DF90CF90BF900C942007D0
:102E700026960FB6F894DEBF0FBECDBFDF91CF917F
:102E80001F910F91FF90EF90DF90CF90BF9008952A
:102E90000E945B1D0E942A1D0E94751D0E948D24A8
:102EA0000E945B2380E090E00E942B1180E090E084
:102EB0000C9459110E944B1D0C9448170E944F1CF2
:102EC000292F22952F7030E02C3031054CF42A3018
:102ED0003105C4F4225031092230310540F023C0BD
:102EE0002C303105D1F02F303105B9F01CC0853AB6
:102EF00028F48430B0F4823028F413C090E2980FA4
:102F0000983078F0883E30F4803E58F48450813A0E
:102F100050F407C0803F39F404C093FB882780F940
:102F2000089581E0089580E00895CF93DF9300D065
:102F300000D01F92CDB7DEB70F900F900F900F907B
:102F40000F90DF91CF910895CF93DF9300D000D001
:102F500000D0CDB7DEB726960FB6F894DEBF0FBE11
:102F6000CDBFDF91CF9108951F93CF93DF93C09191
:102F7000810216E080918202C81799F0D0E01C9F70
:102F8000F0011D9FF00D1124ED57FD4F408151813F
:102F900062817381848195810E94A4172196C770F4
:102FA000E9CFDF91CF911F9108954091B3025091E5
:102FB000B4026091B5027091B6028091B70290910F
:102FC000B8020C94A4178091B80282958F7009F012
:102FD00054C08091B502882309F44FC080918102CA
:102FE000A09182026091B3027091B4024091B60246
:102FF0005091B702B6E08A1709F43FC090E041153E
:103000005105C1F17F3F11F46F3FA1F1B89FF0016D
:10301000B99FF00D1124ED57FD4F218172132AC085
:103020002081621327C02281211124C02381348191
:103030002417350710F421503109241B350B283C87
:103040003105C0F42091B8022F7020612093B8029E
:1030500026E0289FF001299FF00D1124E857FD4F2D
:1030600080818F708061808383EB92E00E941814CE
:103070000C94B41701968770BECF0895CF92DF925B
:10308000EF92FF920F931F93CF93DF93CDB7DEB7ED
:1030900062970FB6F894DEBF0FBECDBF8C0185E0FE
:1030A000F801DE011D9601900D928A95E1F7D80195
:1030B0004C9111965C91119712966C911297139600
:1030C000CD90DC9014973091B3027091B40280914E
:1030D000B6029091B702009709F46BC17F3F19F4D3
:1030E0003F3F09F466C1E090B502EE2009F4C0C08C
:1030F0002091B802C816D90628F0F601E81BF90B92
:10310000CF0104C0809590958C0D9D1DFF24F394F4
:10311000883C910578F0F12C207F09F0C6C07C2D09
:10312000D98AC88A89890E94951783EB92E00E9408
:103130001814B1C0822F807F09F046C0751314C0E7
:10314000341312C0611110C02F7020612093B80297
:103150000E94D51783EB92E00E9418148091B80268
:10316000D80115968C932EC0CD2819F15F3F11F42C
:103170004F3FF9F0F62E61111CC080918102209121
:10318000820236E0821709F45AC090E0389FF001BD
:10319000399FF00D1124ED57FD4F7181571306C073
:1031A0007081471303C07281711103C0019687704B
:1031B000E9CFF62E662309F418C18091B802816028
:1031C0008093B802F12C11C1751308C0341306C0E6
:1031D000611104C08091B802D801C3C04D875E87D9
:1031E0008D859E856A8B0E945E176A898823E1F12E
:1031F0006623D1F12091B802822F82958F7090E0E2
:10320000029774F08091B3029091B40298878F83F3
:103210001986DB86CA862C87CE0107960E94181471
:1032200086E0F801A3EBB2E001900D928A95E1F7F8
:103230000E94E3170E94D517FF24F394D6C04D8750
:103240005E878D859E850E944F1C292F22952F70A9
:1032500030E0223031050CF0BCC09F7009F0B6C0E0
:10326000805E883008F4C1C0C8010E941814E4CF01
:10327000C816D90608F453C0F601E81BF90BCF01B4
:10328000883C910508F450C0F12C7C2DD98AC88A5D
:1032900089890E949517E3EBF2E086E0DF011D9239
:1032A0008A95E9F70E94D517A0C0751314C034138E
:1032B00012C0611110C08091B802F8018583C80165
:1032C0000E94181486E0E3EBF2E0DF011D928A957C
:1032D000E9F7FE2C8AC04D875E878D859E856A8BB7
:1032E0000E945E176A89882309F4BECF662309F419
:1032F000BBCF2091B802822F82958F7090E0029709
:103300000CF48ECF8091B3029091B4029A8389839A
:103310001B82DD82CC822E83CE0101967FCF8095E9
:1033200090958C0D9D1DACCFF62E662309F49CCF95
:1033300075132EC034132CC02091B80220FD1FC07D
:10334000822F82958F70D9F0D80115962C931597FE
:103350008F3049F08F5F982F9295907F822F8F70DA
:10336000892B15968C93C8010E94181486E0F801E9
:10337000A3EBB2E001900D928A95E1F793CF86E03E
:10338000F801A3EBB2E001900D928A95E1F72DC010
:103390004D875E878D859E850E945E17811140CF87
:1033A0008091B80281608093B802C8010E9418140D
:1033B0001CC0662309F458CF4D875E878D859E8596
:1033C0000E945E17882309F44FCF2ACF811148CF7E
:1033D0000CC0243031050CF047CF9F7009F440CF6A
:1033E000F8019581907F09F03BCF8F2D62960FB643
:1033F000F894DEBF0FBECDBFDF91CF911F910F912B
:10340000FF90EF90DF90CF9008951F93CF93DF93BD
:10341000CDB7DEB72C970FB6F894DEBF0FBECDBF89
:103420004F83588769877A878B879C87CE01079659
:103430000E943E18882369F08F8198852A853B85F4
:10344000232BF1F19F3F09F063C08F3F09F060C06B
:1034500037C086E0FE013796DE01119601900D928D
:103460008A95E1F76F817885EA85FB85309741F190
:103470007F3F11F46F3F21F12091820230E0C901BA
:103480000196877099274091810250E08417950733
:1034900009F447C069837A83FD83EC8396E0929FA9
:1034A000D001939FB00D1124AD57BD4FFE01319651
:1034B00001900D929A95E1F7809382020E94B417D1
:1034C00016E080918102909182028917C1F1189FC4
:1034D000C00111248D579D4F0E943E18882379F119
:1034E000E09181021E9FF0011124ED57FD4F4081B4
:1034F000518162817381848195810E94A41780919A
:10350000810290E001968770992780938102D9CF3C
:103510004F81588569857A858B859C850E94A41783
:10352000CFCF0E945A171092820210928102E3EBD1
:10353000F2E086E0DF011D928A95E9F7C1CF2C9673
:103540000FB6F894DEBF0FBECDBFDF91CF911F91B4
:103550000895DF92EF92FF920F931F93CF93DF9323
:10356000FC01892B09F48AC0E12CF12CDD24D394D1
:10357000EF0121968491853709F461C058F48437AE
:1035800008F04EC0843008F06AC08130D1F082303B
:1035900071F174C0883709F45DC050F4863709F4BE
:1035A00055C0873709F06AC08E2D0E94481D54C04F
:1035B0009CE7980F903708F061C08F770E94A013A6
:1035C00050C08F010E5F1F4FFE01849190E2980F53
:1035D000983050F48770FD2D01C0FF0F8A95EAF7EF
:1035E0008F2F0E944E1D14C00E94B21213C08F0173
:1035F0000E5F1F4FFE01C49180E28C0F883060F493
:10360000C7708D2D01C0880FCA95EAF70E94541D1E
:103610000E94751DE80125C08C2F0E94A013FACFCF
:103620009F012E5F3F4FFE01C491CC2369F08FE9CB
:103630009FE00197F1F700C00000C150F6CF9F0155
:103640002E5F3F4FFE01F490E9010BC00E94381D30
:10365000E82E07C00E944B1D0E94751D02C00E94EB
:10366000B2128F2D882341F0EFE9FFE03197F1F797
:1036700000C000008150F6CFFE017ACFDF91CF91DC
:103680001F910F91FF90EF90DF9008956093BD021E
:103690007093BE028093BF029093C0020E94E01D0F
:1036A0000C9448176093B9027093BA028093BB02DE
:1036B0009093BC020E94E11D0C94481708950C944D
:1036C000461B0F931F930091BD021091BE022091E3
:1036D000BF023091C002602B712B822B932B1F9164
:1036E0000F910C94461B0F931F930091BD021091F4
:1036F000BE022091BF023091C00260237123822359
:1037000093231F910F910C94461B0F931F930091CD
:10371000BD021091BE022091BF023091C00260270D
:103720007127822793271F910F910C94461B60E00D
:1037300070E0CB010C94521B0F931F9341E050E0BB
:1037400060E070E08A019B0104C0000F111F221F7E
:10375000331F8A95D2F7C901B8011F910F910C94BC
:10376000521B0F931F9341E050E060E070E004C0F3
:10377000440F551F661F771F8A95D2F78091B902B3
:103780009091BA02A091BB02B091BC028A019B0148
:10379000082B192B2A2B3B2BC901B8011F910F9124
:1037A0000C94521B0F931F9341E050E060E070E0D7
:1037B00004C0440F551F661F771F8A95D2F74095A6
:1037C0005095609570958091B9029091BA02A09140
:1037D000BB02B091BC028A019B01082319232A2352
:1037E0003B23C901B8011F910F910C94521B0F93F9
:1037F0001F9341E050E060E070E004C0440F551FAB
:10380000661F771F8A95D2F78091B9029091BA020C
:10381000A091BB02B091BC028A019B010827192725
:103820002A273B27C901B8011F910F910C94521B05
:103830000F931F930091B9021091BA022091BB021D
:103840003091BC02602B712B822B932B1F910F9117
:103850000C94521B0F931F930091B9021091BA025E
:103860002091BB023091BC026023712382239323F9
:103870001F910F910C94521B0F931F930091B9024B
:103880001091BA022091BB023091BC0260277127CF
:10389000822793271F910F910C94521B0895CF926A
:1038A000DF92EF92FF920F931F93CF93DF938C01E0
:1038B000C090BD02D090BE02E090BF02F090C00266
:1038C0004091B9025091BA026091BB027091BC0262
:1038D000C42AD52AE62AF72ACFE1D0E0D701C601CB
:1038E0000C2E04C0B695A795979587950A94D2F7A4
:1038F00080FF07C0B8018C2F0E94911F8130910575
:1039000031F4219758F7B80180E00E94911FDF91B0
:10391000CF911F910F91FF90EF90DF90CF9008957E
:1039200090910B01992321F090910C01911109C004
:1039300020910D0130910E01F90132969FEF40E088
:1039400030C0982F9695969596959F31A0F4E0916A
:103950000D01F0910E01E90FF11D877021E030E0BB
:10396000A90102C0440F551F8A95E2F7CA0191814F
:10397000892B818308959091E40290FF23C01F92C8
:103980008F9387E894E09F938F930E9411070F9085
:103990000F900F900F9008959F3F39F04F5F4E3179
:1039A00041F051915813F8CF0DC05111F7CF942F1A
:1039B000F5CF9F3F39F0F901E90FF11D97FDFA9519
:1039C00082830895089590910B01992321F090919D
:1039D0000C01911109C020910D0130910E01F901E6
:1039E0003296205E3F4F30C0982F969596959695CB
:1039F0009F31A8F4E0910D01F0910E01E90FF11D46
:103A0000877021E030E0A90102C0440F551F8A955C
:103A1000E2F7CA018095918189238183089590916D
:103A2000E40290FF16C01F928F9389E694E09F9363
:103A30008F930E9411070F900F900F900F90089591
:103A40003196E217F30729F090819813F9CF10828D
:103A5000F7CF089581E090E0E0910D01F0910E0123
:103A6000E80FF91F1082019680329105A9F7089599
:103A70008091E30208959091E302892B8093E30201
:103A8000089580959091E30289238093E30208953D
:103A90008093E30208951092E30208959091E20268
:103AA000892B8093E202089580959091E202892308
:103AB0008093E20208951092E20208958093C10279
:103AC00008951092C102089580910D0190910E0108
:103AD000FC0131969C01205E3F4F80E09191911155
:103AE0008F5FE217F307D1F70895E0910D01F09190
:103AF0000E018091E3028083E0910D01F0910E01AF
:103B000090818091E202892B80838091C102882379
:103B100061F0E0910D01F0910E019081892B80837D
:103B20000E94641D81111092C10280910D0190913B
:103B30000E010C94D71090933901809338010895A9
:103B40008295982F9C7C392F36953695282F237394
:103B500044E0249FC0011124932F982B292F2A7A07
:103B60002695892F8575880F822B08951F93CF93F3
:103B7000DF931F92CDB7DEB799830E94A01D182F47
:103B80009981892F0E94A01D212F30E0322F2227FA
:103B9000A901482BCA010F90DF91CF911F91089581
:103BA0000895CF93DF9300D000D01F92CDB7DEB73A
:103BB0000F900F900F900F900F90DF91CF9108957D
:103BC000089508950C946C1208958091F902843040
:103BD00021F11092E50220E488E190E00FB6F8941C
:103BE000A895809360000FBE2093600083B7817F0B
:103BF000846083BF83B7816083BF7894889583B7DF
:103C00008E7F83BF0FB6F894A8958091600088617D
:103C100080936000109260000FBE0895CF930E94C1
:103C200070120E9469070E947112C0E08C2F0E94DE
:103C30006E08892B29F4CF5FC430C1F780E001C042
:103C400081E0CF9108950E946E120C945A171F9232
:103C50000F920FB60F9211248F939F93AF93BF9340
:103C60008091E502811113C08091E6029091E702F4
:103C7000A091E802B091E9024196A11DB11D809387
:103C8000E6029093E702A093E802B093E902BF91A5
:103C9000AF919F918F910F900FBE0F901F9018952D
:103CA00082E084BD93E095BD9AEF97BD80936E004E
:103CB00008952FB7F8948091E6029091E702A091C1
:103CC000E802B091E9022FBF08952FB7F8946091F0
:103CD000E6027091E7028091E8029091E9022FBF1D
:103CE0000895CF92DF92EF92FF920F931F932FB719
:103CF000F8944091E6025091E7026091E8027091D9
:103D0000E9022FBF6A017B01EE24FF248C0120E031
:103D100030E0C016D106E206F30610F44150510916
:103D20009A01281B390BC9011F910F91FF90EF9049
:103D3000DF90CF9008951F920F920FB60F9211242B
:103D40008F939F93AF93BF938091E6029091E70288
:103D5000A091E802B091E9020196A11DB11D8093E6
:103D6000E6029093E702A093E802B093E902BF91C4
:103D7000AF919F918F910F900FBE0F901F9018954C
:103D80000E94E40DF8942FEF87EA91E621508040DD
:103D90009040E1F700C0000087E090EBDC018093E9
:103DA000030390930403A0930503B09306039CE0E0
:103DB00088E10FB6F894A895809360000FBE9093A9
:103DC0006000FFCF8D3B60F4883A90F5853A28F586
:103DD000843008F5813009F086C081E090E00895D4
:103DE000883E98F4803EB8F48F3B09F07CC00E9476
:103DF0005A172FEF80E792E0215080409040E1F782
:103E000000C000000E94C01E6EC0803F08F46BC05E
:103E100090E09065089590E00895853A21F0863A03
:103E200021F033E803C031E801C032E820E458C093
:103E3000883A51F1893A59F18A3A59F18B3A59F154
:103E40008C3A59F18D3A59F18E3A59F18F3A59F12C
:103E5000813B59F1803B59F1823B59F1833B59F148
:103E6000843B59F1853B59F1863B61F1873B61F118
:103E7000883B61F1893B61F18A3B61F18B3B61F1E8
:103E80008C3B61F130E001C032EE24E429C039EE10
:103E9000FCCF3AEEFACF35EBF8CF36EBF6CF33EB7B
:103EA000F4CF34EBF2CF37EBF0CF3CECEECF3DEC80
:103EB000ECCF33E805C03AE803C032E901C034E989
:103EC00025E40EC031E20BC033E209C034E207C082
:103ED00035E205C036E203C037E201C03AE226E42B
:103EE000832F922F089580E090E0089580E090E085
:103EF00008959CE0799FF001112490E3899FE00DE3
:103F0000F11D1124E60FF11DE45FFE4F8491089529
:103F1000E82FF0E0EE0FFF1FE05AF04085919491FA
:103F200008950E94791F803EA8F4803C00F58133FB
:103F300009F45CC038F4893209F452C08A3209F4B9
:103F40005BC05FC08933B1F08238A1F0853309F4DA
:103F500041C057C0833E41F128F4803E99F0823E33
:103F6000B9F04FC0863E31F1873E71F14AC00E94E0
:103F7000881F08959091020390FD02C091FF41C0F7
:103F800080EE3FC08091020380FFFACF89E339C001
:103F90008091020382FF0CC08091020384FF02C063
:103FA00080E02FC083EE2DC08091020382FFF4CF0A
:103FB00082EE27C08091020383FF0AC08091020332
:103FC00084FDEECF87EE1DC08091020383FFF6CF04
:103FD00086EE17C08091020385FF06C089E211C0FA
:103FE0008091020385FFFACF85E30BC08091020325
:103FF00086FF06C08AE205C08091020386FFFACFE1
:1040000081E30E94E21E0895AF92BF92CF92DF92A9
:10401000EF92FF920F931F93CF937C01C0E0CC24CB
:10402000C394D12C8C2F0E946E085C0100E010E03C
:10403000C601002E02C0880F991F0A94E2F78A2158
:104040009B21892BB1F0602F7C2F80E00E94911F73
:104050009C018E159F0559F0832F807E932F907CB5
:1040600011F0803A31F430E02E153F0511F481E073
:1040700009C00F5F1F4F0C301105D1F6CF5FC43060
:1040800089F680E0CF911F910F91FF90EF90DF9024
:10409000CF90BF90AF900895CF93DF93EC018CE267
:1040A00090E00E940420882329F0CE01DF91CF9177
:1040B0000C94042080E0DF91CF910895CF930E946B
:1040C000C621811102C00E94AC218CEA94E00E94BA
:1040D0007806C5E6C15049F00E9469078FE39CE964
:1040E0000197F1F700C00000F5CF85EA94E00E9447
:1040F000780689E290E00E944C2081112BC18AE26F
:1041000090E00E944C2081110E94AC2185E090E05B
:104110000E944C2081110E94C01E0E94E41D0E943A
:10412000D1218093E40287E090E00E944C20882314
:10413000C1F18BE190E00E944C20882351F08091E6
:10414000E40281FB222720F991E0922790FB81F97C
:104150000FC08EE090E00E944C20882361F0809197
:10416000E40282FB222720F991E0922790FB82F95A
:104170008093E40216C080E190E00E944C20909170
:10418000E402882341F093FB222720F981E0822773
:1041900080FB93F904C0892F809580FB90F9909360
:1041A000E4028091E4020E94D5210E94E3218093E1
:1041B000020380EE90E00E944C20882341F0809121
:1041C0000203982F909590FB80F98093020389E376
:1041D00090E00E944C20882359F08091020381FBDB
:1041E000222720F991E0922790FB81F98093020326
:1041F00082EE90E00E944C20882359F080910203C7
:1042000082FB222720F991E0922790FB82F980938C
:10421000020386EE90E00E944C20882359F08091A2
:10422000020383FB222720F991E0922790FB83F978
:104230008093020383EE90E00E944C20882359F083
:104240008091020384FB222720F991E0922790FBC2
:1042500084F98093020385E390E00E944C20882338
:1042600059F08091020385FB222720F991E09227E3
:1042700090FB85F98093020381E390E00E944C203B
:10428000882359F08091020386FB222720F991E0D0
:10429000922790FB86F98093020381E190E00E94CF
:1042A0004C20882359F08091020387FB222720F9B4
:1042B00091E0922790FB87F980930203809102039B
:1042C0000E94E7218091020387FB882780F9809371
:1042D0000C0187E290E00E944C20C82F8EE190E014
:1042E0000E944C208111C2608FE190E00E944C201E
:1042F0008111C46080E290E00E944C208111C8606E
:1043000081E290E00E944C208111C06182E290E045
:104310000E944C208111C06283E290E00E944C20F8
:104320008111C06484E290E00E944C20882311F047
:10433000C06802C0CC2329F08C2F0E94DE216C2F94
:1043400003C00E94DA21682F70E080E090E0CF91F6
:104350000C945F1BCF9108956DEE7EEF80E090E0AE
:104360000E94442B60E082E090E00E94362B60E0E7
:1043700083E090E00E94362B60E084E090E00E94B1
:10438000362B60E085E090E00C94362B80E090E0E6
:104390000E94302B21E08D3E9E4F09F020E0822FBD
:1043A000089582E090E00C94282B682F82E090E042
:1043B0000C94362B83E090E00C94282B682F83E03C
:1043C00090E00C94362B84E090E00C94282B682F1E
:1043D00084E090E00C94362B8091EC0280FF0BC0BF
:1043E0006091120185E0689FB00111247595679571
:1043F000759567952BC081FF09C06091120185E01A
:10440000689FB00111247595679520C082FF07C091
:104410006091120185E0689FB001112417C090914E
:10442000ED029923D1F060911101961788F7209140
:10443000120185E0289F90011124929FA001939F73
:10444000500D112470E0CA010E94FA2A60387105EB
:1044500040F46115710539F002C065E070E0862F07
:1044600008958FE7089581E008958091EC0280FF20
:1044700008C06091100170E0759567957595679516
:1044800021C081FF06C06091100170E075956795AD
:1044900019C082FF04C06091100170E010C09091BB
:1044A000ED029923C1F060910F019617A0F780915A
:1044B0001001899FC001112470E00E94FA2A60381F
:1044C000710528F46115710521F0862F08958FE795
:1044D000089581E0089561E070E0F4CF803F21F419
:1044E0000E94EC21819504C0813F29F40E94EC21B7
:1044F0008093F0020895823F21F40E94EC2181957F
:1045000004C0833F29F40E94EC218093EF020895B8
:10451000893F19F40E94352205C08A3F31F40E9478
:10452000352281958093F10208958B3F21F40E94FA
:104530003522819504C08C3F29F40E943522809356
:10454000F2020895843F21F48091EE02816017C049
:10455000853F21F48091EE02826011C0863F21F4F4
:104560008091EE0284600BC0873F21F48091EE02BF
:10457000886005C0883F31F48091EE0280618093AD
:10458000EE0208958D3F21F48091EC0281600BC012
:104590008E3F21F48091EC02826005C08F3F29F4A8
:1045A0008091EC0284608093EC020895803F39F49E
:1045B0008091F00287FF6CC01092F00269C0813FC9
:1045C00029F48091F0021816BCF362C09091EF02BA
:1045D000823F29F497FF5CC01092EF0259C0833FDD
:1045E00019F41916CCF354C0893F41F48091F102BB
:1045F00018160CF04DC01092F1024AC08A3F29F4FF
:104600008091F10287FF44C0F6CF8B3F39F480914F
:10461000F20287FF3DC01092F2023AC08C3F29F4AB
:104620008091F2021816BCF333C0843F21F48091CC
:10463000EE028E7F17C0853F21F48091EE028D7FC0
:1046400011C0863F21F48091EE028B7F0BC0873F23
:1046500021F48091EE02877F05C0883F31F480917C
:10466000EE028F7E8093EE0213C08D3F21F4809185
:10467000EC028E7F0BC08E3F21F48091EC028D7F87
:1046800005C08F3F29F48091EC028B7F8093EC0270
:104690008091EF0281110EC08091F00281110AC059
:1046A0008091F102811106C08091F202811102C055
:1046B0001092ED0208958091E40283FF7EC088EE9F
:1046C00094E00E9478068091EE021F928F9383EE11
:1046D00094E09F938F930E94110781EE94E00E94D3
:1046E00078068091EF02282F082E000C330B3F93A1
:1046F0008F938EED94E09F938F930E9411078CED22
:1047000094E00E9478068091F002282F082E000C79
:10471000330B3F938F9389ED94E09F938F930E9487
:10472000110787ED94E00E9478068091F102282F0E
:10473000082E000C330B3F938F9384ED94E09F93EE
:104740008F930E94110782ED94E00E947806809179
:10475000F202282F082E000C330B3F938F938FEC1F
:1047600094E09F938F930E9411078CEC94E00E9439
:1047700078068091ED021F928F9389EC94E09F93CD
:104780008F930E94110787EC94E00E947806809135
:10479000EC021F928F9384EC94E09F938F930E947E
:1047A000110781EC94E00E9478068DB79EB74C9675
:1047B0000FB6F8949EBF0FBE8DBF8EEE92E00E94A2
:1047C00020110E94591E9093EB028093EA020895F3
:1047D0001F93CF93DF938091EA029091EB020E94A6
:1047E000711EAC019091ED02992321F020911301EB
:1047F00030E006C0209114018AE0289F9001112426
:104800004217530708F485C08091EF02C091F0026F
:10481000D091F1021091F202811107C0C11175C04F
:10482000D11173C0111171C074C09F3F19F09F5F07
:104830009093ED02181624F40E94EC218093EF026D
:104840008091EF0287FF05C00E94EC218195809343
:10485000EF021C1624F40E94EC218093F002809158
:10486000F00287FF05C00E94EC2181958093F00241
:104870006091EF02662331F1C091F002CC2311F177
:10488000062E000C770B880B990B0E94F52923E369
:1048900033E343E35FE30E94592A0E94BD296093FA
:1048A000EF026C2FCC0F770B880B990B0E94F52928
:1048B00023E333E343E35FE30E94592A0E94BD29C7
:1048C0006093F0021D1624F40E9435228093F102B9
:1048D0008091F10287FF05C00E9435228195809367
:1048E000F102111624F40E9435228093F202809185
:1048F000F20287FF05C00E94352281958093F20263
:10490000DF91CF911F910C945B239F3F09F08FCFD4
:1049100097CFDF91CF911F910895EEEEF2E085E001
:10492000DF011D928A95E9F71092ED021092EC02D8
:1049300008958BE097E00E9478061F9281E08F93A4
:104940001F9285E08F938DEB96E09F938F930E944B
:1049500011070F900F900F900F900F900F900895E8
:104960008330E9F128F4813061F0823009F1089553
:10497000853009F462C008F449C0863009F474C077
:10498000089580911401262F30E0280F311D2F3F0C
:10499000310524F4680F6093140103C08FEF8093F6
:1049A0001401809114011F928F9386EF95E072C0DD
:1049B00080911301262F30E0280F311D2F3F310544
:1049C00024F4680F6093130103C08FEF80931301E9
:1049D000809113011F928F9384EE95E05BC08091CC
:1049E0001201262F30E0280F311D2F3F310524F40E
:1049F000680F6093120103C08FEF809312018091C2
:104A000012011F928F9381ED95E044C080911101B6
:104A1000262F30E0280F311D2F3F310524F4680F79
:104A20006093110103C08FEF8093110180911101F8
:104A30001F928F938CEB95E02DC080911001262F53
:104A400030E0280F311D2F3F310524F4680F6093AB
:104A5000100103C08FEF80931001809110011F920D
:104A60008F9383EA95E016C080910F01262F30E0E6
:104A7000280F311D2F3F310524F4680F60930F017B
:104A800003C08FEF80930F0180910F011F928F93CE
:104A900088E895E09F938F930E9411070F900F90E5
:104AA0000F900F900895833081F128F4813059F0F0
:104AB0008230D1F00895853009F449C0B8F18630CC
:104AC00009F456C0089580911401681720F4861BDC
:104AD0008093140102C010921401809114011F925E
:104AE0008F9389E795E054C080911301681720F4F3
:104AF000861B8093130102C0109213018091130151
:104B00001F928F9387E695E043C08091120168174A
:104B100020F4861B8093120102C010921201809132
:104B200012011F928F9384E595E032C080911101AC
:104B3000681720F4861B8093110102C010921101A6
:104B4000809111011F928F938FE395E021C0809196
:104B50001001681720F4861B8093100102C0109288
:104B60001001809110011F928F9386E295E010C092
:104B700080910F01681720F4861B80930F0102C0FB
:104B800010920F0180910F011F928F938BE095E09F
:104B90009F938F930E9411070F900F900F900F908B
:104BA0000895CF93C82F1F928F9380E198E09F9331
:104BB0008F930E94110781E090E0A0E0B0E0BC017B
:104BC000CD0104C0660F771F881F991FCA95D2F7C1
:104BD0000E945F1B0F900F900F900F90CF910C943D
:104BE0005A17CF938B3109F4CBC108F049C08E30EE
:104BF00009F4DAC100F5873009F4A9C1A8F48630B8
:104C000009F05AC28091E402817F8E7F8093E40292
:104C100085E198E00E94780687E39CE00E94780690
:104C200081E08093F40291C1883009F45BC08B303D
:104C300009F487C141C2813109F426C220F48031D0
:104C400009F4C6C139C2863109F4DDC1893109F0E0
:104C500033C28BEA9BE00E94780681E99BE00E94C8
:104C6000780681E59BE00E9478068AE29BE00E943C
:104C7000780685EE9AE00E94780687EB9AE063C199
:104C8000853309F413C268F4873209F40FC228F49B
:104C90008E3108F411C28D510CC2893209F406C25A
:104CA0000BC2833438F48A3308F002C2883309F423
:104CB00048C102C2833409F4F9C1883409F0FCC147
:104CC0000E945A1786E29CE00E9478069FEF23ED2F
:104CD00080E3915020408040E1F700C000000E9436
:104CE000C01E33C18BE39CE00E94780684E19AE009
:104CF0000E9478060E94DA211F928F9381E19AE048
:104D00009F938F930E9411078FE09AE00E9478068C
:104D10000E94D121C82F8CEF99E00E9478061F9243
:104D2000CF9387EF99E09F938F930E94110785EFB0
:104D300099E00E9478068BEE99E00E9478068C2F0D
:104D400081701F928F9388EE99E09F938F930E94BA
:104D5000110786EE99E00E9478068CED99E00E949A
:104D60007806C1FB882780F91F928F9389ED99E01F
:104D70009F938F930E94110787ED99E00E94780618
:104D80008BEC99E00E947806C2FB882780F91F927D
:104D90008F9388EC99E09F938F930E94110786EC84
:104DA00099E00E9478068DEB99E00E947806C3FB9B
:104DB000CC27C0F91F92CF938AEB99E09F938F93F2
:104DC0000E94110788EB99E00E9478060E94E32177
:104DD000C82F84EA99E00E9478061F92CF938FE94A
:104DE00099E09F938F930E9411078DE999E00E94AB
:104DF000780684E899E00E9478068C2F81701F92D3
:104E00008F9381E899E09F938F930E9411078DB74C
:104E10009EB780960FB6F8949EBF0FBE8DBF8FE7EA
:104E200099E00E94780688E699E00E947806C1FB26
:104E3000882780F91F928F9385E699E09F938F933F
:104E40000E94110783E699E00E94780681E599E0C7
:104E50000E947806C2FB882780F91F928F938EE408
:104E600099E09F938F930E9411078CE499E00E9430
:104E700078068AE399E00E947806C3FB882780F9C8
:104E80001F928F9387E399E09F938F930E9411075E
:104E900085E399E00E9478068BE299E00E9478060B
:104EA000C4FB882780F91F928F9388E299E09F9333
:104EB0008F930E94110786E299E00E94780684E1B0
:104EC00099E00E947806C5FB882780F91F928F938E
:104ED00081E199E09F938F930E9411078FE099E001
:104EE0000E94780683EF98E00E947806C6FB882728
:104EF00080F91F928F9380EF98E09F938F930E9489
:104F000011078EEE98E00E94780686EE98E00E94E7
:104F10007806C7FBCC27C0F91F92CF9383EE98E0A9
:104F20009F938F930E94110781EE98E00E9478066C
:104F30008DB79EB74C960FB6F8949EBF0FBE8DBF2F
:104F400004C08CE398E00E947806C1E0BAC080916A
:104F5000E402C82FC17080FF09C089E19CE00E9473
:104F600078068091E402817F8E7F47C08DE09CE0CF
:104F70000E9478068091E40281608093E402E5CF8C
:104F80009091E40291FBCC27C0F981E0C827892FDA
:104F9000C0FB81F98093E402CC2319F080E09CE00F
:104FA00027C082EF9BE0CFCF9091E40292FBCC2709
:104FB000C0F981E0C827892FC0FB82F98093E40201
:104FC000CC2319F083EE9BE013C083ED9BE0BBCFB5
:104FD0009091E40293FBCC27C0F981E0C827892F88
:104FE000C0FB83F98093E402CC2351F087EC9BE073
:104FF0000E9478068091E40281608093E40261C09F
:105000008AEB9BE0A0CF89EA9AE00E9478060E9492
:10501000CB101F928F938FE89AE09F938F930E94FB
:10502000110780910B011F928F9388E79AE09F935D
:105030008F930E941107809171021F928F9385E6D2
:105040009AE09F938F930E94110780910C011F9209
:105050008F9382E59AE09F938F930E9411070E949D
:10506000651E9F938F937F936F938BE39AE09F933B
:105070008F930E9411078DB79EB746960FB6F8948E
:105080009EBF0FBE8DBF61CF0E945A17C0910C0109
:1050900081E0C827C0930C01CC2329F081E39AE07A
:1050A0000E9478060EC086E29AE04DCF80E001C0F3
:1050B00089530E94D12549CF84E29AE00E94780664
:1050C000C0E08C2FCF91089580E0089580E008958E
:1050D000CF93C82F8091F402813071F020F082309C
:1050E00009F44BC042C1E0910D01F0910E018081A5
:1050F000823209F03CC107C0E0910D01F0910E0130
:105100008081823261F48C2F0E946428811104C056
:105110008C2F0E94F1252FC081E090E02CC08C2FB5
:105120000E946628811126C0C431E1F070F4CB30B2
:1051300081F0C031D1F40E94992488E098E00E9467
:10514000780682E08093F40215C0C93259F0C83362
:1051500061F485E198E00E9478068CE098E00E9476
:10516000780608C01092F40204C186E098E00E941C
:105170007806FFC081E08170FEC0C43228F5CE31D0
:1051800008F0C1C0CB30A1F1D0F4C73009F0D3C0D2
:105190008EE18093140182E3809313018AE080936F
:1051A000120184E18093110188E08093100188E26C
:1051B00080930F018CEA96E00E947806BFC0C3314D
:1051C00049F1C431C1F0B7C0CB3409F4A9C028F407
:1051D000C93289F0C83361F0AEC0C13509F49EC050
:1051E000C23509F499C0CE3409F0A5C06AE09EC06A
:1051F0000E949924A3C08091F302882319F0109291
:10520000F3029CC089EB96E00E94780681E08093CF
:10521000F402B1C083E996E00E94780681E896E046
:105220000E947806809114011F928F938EE796E07A
:105230009F938F930E9411078CE796E00E94780657
:105240008AE696E00E947806809113011F928F9360
:1052500087E696E09F938F930E94110785E696E07C
:105260000E94780686E596E00E94780680911201F9
:105270001F928F9383E596E09F938F930E9411076F
:1052800081E596E00E94780680E496E00E94780628
:10529000809111011F928F938DE396E09F938F93DE
:1052A0000E9411078BE396E00E94780686E296E062
:1052B0000E947806809110011F928F9383E296E0FE
:1052C0009F938F930E94110781E296E00E947806D7
:1052D0008AE096E00E94780680910F011F928F93DA
:1052E00087E096E09F938F930E94110785E096E0F8
:1052F0000E9478068DB79EB748960FB6F8949EBF69
:105300000FBE8DBF1BC0CE51EC2FF0E0E25DFE4F13
:1053100080818093F30212C061E003C061E006C0A7
:105320006AE08091F3020E94B02408C08091F302E9
:105330000E94532503C08AEA96E013C08091F302CD
:10534000882369F01F928F9384EA96E09F938F934E
:105350000E9411070F900F900F900F9004C081EAE8
:1053600096E00E94780681E006C01092F40280E088
:1053700002C080E000CFCF9108950E94C4296894B4
:10538000B1110C94532A08950E94382A88F09F572F
:1053900098F0B92F9927B751B0F0E1F0660F771F59
:1053A000881F991F1AF0BA95C9F714C0B13091F04F
:1053B0000E94522AB1E008950C94522A672F782F48
:1053C0008827B85F39F0B93FCCF386957795679514
:1053D000B395D9F73EF490958095709561957F4F80
:1053E0008F4F9F4F0895E89409C097FB3EF4909526
:1053F0008095709561957F4F8F4F9F4F9923A9F0AE
:10540000F92F96E9BB279395F6958795779567953C
:10541000B795F111F8CFFAF4BB0F11F460FF1BC080
:105420006F5F7F4F8F4F9F4F16C0882311F096E913
:1054300011C0772321F09EE8872F762F05C06623C1
:1054400071F096E8862F70E060E02AF09A95660F7A
:10545000771F881FDAF7880F9695879597F9089533
:1054600057FD9058440F551F59F05F3F71F0479515
:10547000880F97FB991F61F09F3F79F087950895FA
:10548000121613061406551FF2CF4695F1DF08C019
:10549000161617061806991FF1CF86957105610536
:1054A00008940895E894BB2766277727CB0197F9DE
:1054B00008950E946C2A0C94DD2A0E94CF2A38F0AD
:1054C0000E94D62A20F0952311F00C94C62A0C9441
:1054D000CC2A11240C94532A0E94302A70F3959FF1
:1054E000C1F3950F50E0551F629FF001729FBB27DB
:1054F000F00DB11D639FAA27F00DB11DAA1F649F77
:105500006627B00DA11D661F829F2227B00DA11D29
:10551000621F739FB00DA11D621F839FA00D611DAF
:10552000221F749F3327A00D611D231F849F600DD0
:10553000211D822F762F6A2F11249F5750409AF0F9
:10554000F1F088234AF0EE0FFF1FBB1F661F771F85
:10555000881F91505040A9F79E3F510580F00C9450
:10556000C62A0C94532A5F3FE4F3983ED4F3869501
:1055700077956795B795F795E7959F5FC1F7FE2BF0
:10558000880F911D9695879597F9089597F99F67CC
:1055900080E870E060E008959FEF80EC08950024BB
:1055A0000A941616170618060906089500240A9488
:1055B00012161306140605060895092E0394000C0E
:1055C00011F4882352F0BB0F40F4BF2B11F460FF9D
:1055D00004C06F5F7F4F8F4F9F4F0895991B79E0F5
:1055E00004C0991F961708F0961B881F7A95C9F773
:1055F0008095089597FB072E16F4009407D077FD49
:1056000009D00E94142B07FC05D03EF4909581959B
:105610009F4F0895709561957F4F0895EE0FFF1F7E
:105620000590F491E02D0994AA1BBB1B51E107C022
:10563000AA1FBB1FA617B70710F0A61BB70B881F22
:10564000991F5A95A9F780959095BC01CD010895B1
:10565000F999FECF92BD81BDF89A992780B508953A
:10566000A8E1B0E042E050E00C944B2B262FF999D2
:10567000FECF1FBA92BD81BD20BD0FB6F894FA9A35
:10568000F99A0FBE019608950E94362B272F0C948D
:10569000372BDC01CB01FC01F999FECF06C0F2BD2E
:1056A000E1BDF89A319600B40D9241505040B8F7E0
:0656B0000895F894FFCFFD
:1056B600050709F809D509A1096D090101C20228E2
:1056C60008140A321E404D362239ED03A0036A0340
:1056D60048030F0382029B02B402CD02ED020102CF
:0856E600030405060708090092
:00000001FF
